{
  "_format": "hh-sol-artifact-1",
  "contractName": "TestNFT",
  "sourceName": "contracts/NFT.sol",
  "abi": [
    {
      "inputs": [],
      "stateMutability": "nonpayable",
      "type": "constructor"
    },
    {
      "anonymous": false,
      "inputs": [
        {
          "indexed": true,
          "internalType": "address",
          "name": "owner",
          "type": "address"
        },
        {
          "indexed": true,
          "internalType": "address",
          "name": "approved",
          "type": "address"
        },
        {
          "indexed": true,
          "internalType": "uint256",
          "name": "tokenId",
          "type": "uint256"
        }
      ],
      "name": "Approval",
      "type": "event"
    },
    {
      "anonymous": false,
      "inputs": [
        {
          "indexed": true,
          "internalType": "address",
          "name": "owner",
          "type": "address"
        },
        {
          "indexed": true,
          "internalType": "address",
          "name": "operator",
          "type": "address"
        },
        {
          "indexed": false,
          "internalType": "bool",
          "name": "approved",
          "type": "bool"
        }
      ],
      "name": "ApprovalForAll",
      "type": "event"
    },
    {
      "anonymous": false,
      "inputs": [
        {
          "indexed": true,
          "internalType": "address",
          "name": "from",
          "type": "address"
        },
        {
          "indexed": true,
          "internalType": "address",
          "name": "to",
          "type": "address"
        },
        {
          "indexed": true,
          "internalType": "uint256",
          "name": "tokenId",
          "type": "uint256"
        }
      ],
      "name": "Transfer",
      "type": "event"
    },
    {
      "inputs": [
        {
          "internalType": "address",
          "name": "to",
          "type": "address"
        },
        {
          "internalType": "uint256",
          "name": "tokenId",
          "type": "uint256"
        }
      ],
      "name": "approve",
      "outputs": [],
      "stateMutability": "nonpayable",
      "type": "function"
    },
    {
      "inputs": [
        {
          "internalType": "address",
          "name": "owner",
          "type": "address"
        }
      ],
      "name": "balanceOf",
      "outputs": [
        {
          "internalType": "uint256",
          "name": "",
          "type": "uint256"
        }
      ],
      "stateMutability": "view",
      "type": "function"
    },
    {
      "inputs": [
        {
          "internalType": "uint256",
          "name": "tokenId",
          "type": "uint256"
        }
      ],
      "name": "burn",
      "outputs": [],
      "stateMutability": "nonpayable",
      "type": "function"
    },
    {
      "inputs": [
        {
          "internalType": "uint256",
          "name": "tokenId",
          "type": "uint256"
        }
      ],
      "name": "getApproved",
      "outputs": [
        {
          "internalType": "address",
          "name": "",
          "type": "address"
        }
      ],
      "stateMutability": "view",
      "type": "function"
    },
    {
      "inputs": [
        {
          "internalType": "address",
          "name": "owner",
          "type": "address"
        },
        {
          "internalType": "address",
          "name": "operator",
          "type": "address"
        }
      ],
      "name": "isApprovedForAll",
      "outputs": [
        {
          "internalType": "bool",
          "name": "",
          "type": "bool"
        }
      ],
      "stateMutability": "view",
      "type": "function"
    },
    {
      "inputs": [],
      "name": "name",
      "outputs": [
        {
          "internalType": "string",
          "name": "",
          "type": "string"
        }
      ],
      "stateMutability": "view",
      "type": "function"
    },
    {
      "inputs": [
        {
          "internalType": "uint256",
          "name": "tokenId",
          "type": "uint256"
        }
      ],
      "name": "ownerOf",
      "outputs": [
        {
          "internalType": "address",
          "name": "",
          "type": "address"
        }
      ],
      "stateMutability": "view",
      "type": "function"
    },
    {
      "inputs": [
        {
          "internalType": "address",
          "name": "to",
          "type": "address"
        },
        {
          "internalType": "uint256",
          "name": "tokenId",
          "type": "uint256"
        }
      ],
      "name": "safeMint",
      "outputs": [],
      "stateMutability": "nonpayable",
      "type": "function"
    },
    {
      "inputs": [
        {
          "internalType": "address",
          "name": "from",
          "type": "address"
        },
        {
          "internalType": "address",
          "name": "to",
          "type": "address"
        },
        {
          "internalType": "uint256",
          "name": "tokenId",
          "type": "uint256"
        }
      ],
      "name": "safeTransferFrom",
      "outputs": [],
      "stateMutability": "nonpayable",
      "type": "function"
    },
    {
      "inputs": [
        {
          "internalType": "address",
          "name": "from",
          "type": "address"
        },
        {
          "internalType": "address",
          "name": "to",
          "type": "address"
        },
        {
          "internalType": "uint256",
          "name": "tokenId",
          "type": "uint256"
        },
        {
          "internalType": "bytes",
          "name": "data",
          "type": "bytes"
        }
      ],
      "name": "safeTransferFrom",
      "outputs": [],
      "stateMutability": "nonpayable",
      "type": "function"
    },
    {
      "inputs": [
        {
          "internalType": "address",
          "name": "operator",
          "type": "address"
        },
        {
          "internalType": "bool",
          "name": "approved",
          "type": "bool"
        }
      ],
      "name": "setApprovalForAll",
      "outputs": [],
      "stateMutability": "nonpayable",
      "type": "function"
    },
    {
      "inputs": [
        {
          "internalType": "bytes4",
          "name": "interfaceId",
          "type": "bytes4"
        }
      ],
      "name": "supportsInterface",
      "outputs": [
        {
          "internalType": "bool",
          "name": "",
          "type": "bool"
        }
      ],
      "stateMutability": "view",
      "type": "function"
    },
    {
      "inputs": [],
      "name": "symbol",
      "outputs": [
        {
          "internalType": "string",
          "name": "",
          "type": "string"
        }
      ],
      "stateMutability": "view",
      "type": "function"
    },
    {
      "inputs": [
        {
          "internalType": "uint256",
          "name": "tokenId",
          "type": "uint256"
        }
      ],
      "name": "tokenURI",
      "outputs": [
        {
          "internalType": "string",
          "name": "",
          "type": "string"
        }
      ],
      "stateMutability": "view",
      "type": "function"
    },
    {
      "inputs": [
        {
          "internalType": "address",
          "name": "from",
          "type": "address"
        },
        {
          "internalType": "address",
          "name": "to",
          "type": "address"
        },
        {
          "internalType": "uint256",
          "name": "tokenId",
          "type": "uint256"
        }
      ],
      "name": "transferFrom",
      "outputs": [],
      "stateMutability": "nonpayable",
      "type": "function"
    }
  ],
  "bytecode": "0x60806040523480156200001157600080fd5b506040518060400160405280600981526020017f68656c626a69616e6700000000000000000000000000000000000000000000008152506040518060400160405280600381526020017f68626a000000000000000000000000000000000000000000000000000000000081525081600090816200008f919062000324565b508060019081620000a1919062000324565b5050506200040b565b600081519050919050565b7f4e487b7100000000000000000000000000000000000000000000000000000000600052604160045260246000fd5b7f4e487b7100000000000000000000000000000000000000000000000000000000600052602260045260246000fd5b600060028204905060018216806200012c57607f821691505b602082108103620001425762000141620000e4565b5b50919050565b60008190508160005260206000209050919050565b60006020601f8301049050919050565b600082821b905092915050565b600060088302620001ac7fffffffffffffffffffffffffffffffffffffffffffffffffffffffffffffffff826200016d565b620001b886836200016d565b95508019841693508086168417925050509392505050565b6000819050919050565b6000819050919050565b600062000205620001ff620001f984620001d0565b620001da565b620001d0565b9050919050565b6000819050919050565b6200022183620001e4565b6200023962000230826200020c565b8484546200017a565b825550505050565b600090565b6200025062000241565b6200025d81848462000216565b505050565b5b8181101562000285576200027960008262000246565b60018101905062000263565b5050565b601f821115620002d4576200029e8162000148565b620002a9846200015d565b81016020851015620002b9578190505b620002d1620002c8856200015d565b83018262000262565b50505b505050565b600082821c905092915050565b6000620002f960001984600802620002d9565b1980831691505092915050565b6000620003148383620002e6565b9150826002028217905092915050565b6200032f82620000aa565b67ffffffffffffffff8111156200034b576200034a620000b5565b5b62000357825462000113565b6200036482828562000289565b600060209050601f8311600181146200039c576000841562000387578287015190505b62000393858262000306565b86555062000403565b601f198416620003ac8662000148565b60005b82811015620003d657848901518255600182019150602085019450602081019050620003af565b86831015620003f65784890151620003f2601f891682620002e6565b8355505b6001600288020188555050505b505050505050565b6126a4806200041b6000396000f3fe608060405234801561001057600080fd5b50600436106100f55760003560e01c80636352211e11610097578063a22cb46511610066578063a22cb46514610282578063b88d4fde1461029e578063c87b56dd146102ba578063e985e9c5146102ea576100f5565b80636352211e146101e857806370a082311461021857806395d89b4114610248578063a144819414610266576100f5565b8063095ea7b3116100d3578063095ea7b31461017857806323b872dd1461019457806342842e0e146101b057806342966c68146101cc576100f5565b806301ffc9a7146100fa57806306fdde031461012a578063081812fc14610148575b600080fd5b610114600480360381019061010f91906119a0565b61031a565b60405161012191906119e8565b60405180910390f35b6101326103fc565b60405161013f9190611a93565b60405180910390f35b610162600480360381019061015d9190611aeb565b61048e565b60405161016f9190611b59565b60405180910390f35b610192600480360381019061018d9190611ba0565b6104d4565b005b6101ae60048036038101906101a99190611be0565b6105eb565b005b6101ca60048036038101906101c59190611be0565b61064b565b005b6101e660048036038101906101e19190611aeb565b61066b565b005b61020260048036038101906101fd9190611aeb565b6106c7565b60405161020f9190611b59565b60405180910390f35b610232600480360381019061022d9190611c33565b61074d565b60405161023f9190611c6f565b60405180910390f35b610250610804565b60405161025d9190611a93565b60405180910390f35b610280600480360381019061027b9190611ba0565b610896565b005b61029c60048036038101906102979190611cb6565b6108a4565b005b6102b860048036038101906102b39190611e2b565b6108ba565b005b6102d460048036038101906102cf9190611aeb565b61091c565b6040516102e19190611a93565b60405180910390f35b61030460048036038101906102ff9190611eae565b610984565b60405161031191906119e8565b60405180910390f35b60007f80ac58cd000000000000000000000000000000000000000000000000000000007bffffffffffffffffffffffffffffffffffffffffffffffffffffffff1916827bffffffffffffffffffffffffffffffffffffffffffffffffffffffff191614806103e557507f5b5e139f000000000000000000000000000000000000000000000000000000007bffffffffffffffffffffffffffffffffffffffffffffffffffffffff1916827bffffffffffffffffffffffffffffffffffffffffffffffffffffffff1916145b806103f557506103f482610a18565b5b9050919050565b60606000805461040b90611f1d565b80601f016020809104026020016040519081016040528092919081815260200182805461043790611f1d565b80156104845780601f1061045957610100808354040283529160200191610484565b820191906000526020600020905b81548152906001019060200180831161046757829003601f168201915b5050505050905090565b600061049982610a82565b6004600083815260200190815260200160002060009054906101000a900473ffffffffffffffffffffffffffffffffffffffff169050919050565b60006104df826106c7565b90508073ffffffffffffffffffffffffffffffffffffffff168373ffffffffffffffffffffffffffffffffffffffff160361054f576040517f08c379a000000000000000000000000000000000000000000000000000000000815260040161054690611fc0565b60405180910390fd5b8073ffffffffffffffffffffffffffffffffffffffff1661056e610acd565b73ffffffffffffffffffffffffffffffffffffffff16148061059d575061059c81610597610acd565b610984565b5b6105dc576040517f08c379a00000000000000000000000000000000000000000000000000000000081526004016105d390612052565b60405180910390fd5b6105e68383610ad5565b505050565b6105fc6105f6610acd565b82610b8e565b61063b576040517f08c379a0000000000000000000000000000000000000000000000000000000008152600401610632906120e4565b60405180910390fd5b610646838383610c23565b505050565b610666838383604051806020016040528060008152506108ba565b505050565b61067c610676610acd565b82610b8e565b6106bb576040517f08c379a00000000000000000000000000000000000000000000000000000000081526004016106b2906120e4565b60405180910390fd5b6106c481610f1c565b50565b6000806106d38361106a565b9050600073ffffffffffffffffffffffffffffffffffffffff168173ffffffffffffffffffffffffffffffffffffffff1603610744576040517f08c379a000000000000000000000000000000000000000000000000000000000815260040161073b90612150565b60405180910390fd5b80915050919050565b60008073ffffffffffffffffffffffffffffffffffffffff168273ffffffffffffffffffffffffffffffffffffffff16036107bd576040517f08c379a00000000000000000000000000000000000000000000000000000000081526004016107b4906121e2565b60405180910390fd5b600360008373ffffffffffffffffffffffffffffffffffffffff1673ffffffffffffffffffffffffffffffffffffffff168152602001908152602001600020549050919050565b60606001805461081390611f1d565b80601f016020809104026020016040519081016040528092919081815260200182805461083f90611f1d565b801561088c5780601f106108615761010080835404028352916020019161088c565b820191906000526020600020905b81548152906001019060200180831161086f57829003601f168201915b5050505050905090565b6108a082826110a7565b5050565b6108b66108af610acd565b83836110c5565b5050565b6108cb6108c5610acd565b83610b8e565b61090a576040517f08c379a0000000000000000000000000000000000000000000000000000000008152600401610901906120e4565b60405180910390fd5b61091684848484611231565b50505050565b606061092782610a82565b600061093161128d565b90506000815111610951576040518060200160405280600081525061097c565b8061095b846112a4565b60405160200161096c92919061223e565b6040516020818303038152906040525b915050919050565b6000600560008473ffffffffffffffffffffffffffffffffffffffff1673ffffffffffffffffffffffffffffffffffffffff16815260200190815260200160002060008373ffffffffffffffffffffffffffffffffffffffff1673ffffffffffffffffffffffffffffffffffffffff16815260200190815260200160002060009054906101000a900460ff16905092915050565b60007f01ffc9a7000000000000000000000000000000000000000000000000000000007bffffffffffffffffffffffffffffffffffffffffffffffffffffffff1916827bffffffffffffffffffffffffffffffffffffffffffffffffffffffff1916149050919050565b610a8b81611372565b610aca576040517f08c379a0000000000000000000000000000000000000000000000000000000008152600401610ac190612150565b60405180910390fd5b50565b600033905090565b816004600083815260200190815260200160002060006101000a81548173ffffffffffffffffffffffffffffffffffffffff021916908373ffffffffffffffffffffffffffffffffffffffff160217905550808273ffffffffffffffffffffffffffffffffffffffff16610b48836106c7565b73ffffffffffffffffffffffffffffffffffffffff167f8c5be1e5ebec7d5bd14f71427d1e84f3dd0314c0f7b2291e5b200ac8c7c3b92560405160405180910390a45050565b600080610b9a836106c7565b90508073ffffffffffffffffffffffffffffffffffffffff168473ffffffffffffffffffffffffffffffffffffffff161480610bdc5750610bdb8185610984565b5b80610c1a57508373ffffffffffffffffffffffffffffffffffffffff16610c028461048e565b73ffffffffffffffffffffffffffffffffffffffff16145b91505092915050565b8273ffffffffffffffffffffffffffffffffffffffff16610c43826106c7565b73ffffffffffffffffffffffffffffffffffffffff1614610c99576040517f08c379a0000000000000000000000000000000000000000000000000000000008152600401610c90906122d4565b60405180910390fd5b600073ffffffffffffffffffffffffffffffffffffffff168273ffffffffffffffffffffffffffffffffffffffff1603610d08576040517f08c379a0000000000000000000000000000000000000000000000000000000008152600401610cff90612366565b60405180910390fd5b610d1583838360016113b3565b8273ffffffffffffffffffffffffffffffffffffffff16610d35826106c7565b73ffffffffffffffffffffffffffffffffffffffff1614610d8b576040517f08c379a0000000000000000000000000000000000000000000000000000000008152600401610d82906122d4565b60405180910390fd5b6004600082815260200190815260200160002060006101000a81549073ffffffffffffffffffffffffffffffffffffffff02191690556001600360008573ffffffffffffffffffffffffffffffffffffffff1673ffffffffffffffffffffffffffffffffffffffff168152602001908152602001600020600082825403925050819055506001600360008473ffffffffffffffffffffffffffffffffffffffff1673ffffffffffffffffffffffffffffffffffffffff16815260200190815260200160002060008282540192505081905550816002600083815260200190815260200160002060006101000a81548173ffffffffffffffffffffffffffffffffffffffff021916908373ffffffffffffffffffffffffffffffffffffffff160217905550808273ffffffffffffffffffffffffffffffffffffffff168473ffffffffffffffffffffffffffffffffffffffff167fddf252ad1be2c89b69c2b068fc378daa952ba7f163c4a11628f55a4df523b3ef60405160405180910390a4610f1783838360016113b9565b505050565b6000610f27826106c7565b9050610f378160008460016113b3565b610f40826106c7565b90506004600083815260200190815260200160002060006101000a81549073ffffffffffffffffffffffffffffffffffffffff02191690556001600360008373ffffffffffffffffffffffffffffffffffffffff1673ffffffffffffffffffffffffffffffffffffffff168152602001908152602001600020600082825403925050819055506002600083815260200190815260200160002060006101000a81549073ffffffffffffffffffffffffffffffffffffffff021916905581600073ffffffffffffffffffffffffffffffffffffffff168273ffffffffffffffffffffffffffffffffffffffff167fddf252ad1be2c89b69c2b068fc378daa952ba7f163c4a11628f55a4df523b3ef60405160405180910390a46110668160008460016113b9565b5050565b60006002600083815260200190815260200160002060009054906101000a900473ffffffffffffffffffffffffffffffffffffffff169050919050565b6110c18282604051806020016040528060008152506113bf565b5050565b8173ffffffffffffffffffffffffffffffffffffffff168373ffffffffffffffffffffffffffffffffffffffff1603611133576040517f08c379a000000000000000000000000000000000000000000000000000000000815260040161112a906123d2565b60405180910390fd5b80600560008573ffffffffffffffffffffffffffffffffffffffff1673ffffffffffffffffffffffffffffffffffffffff16815260200190815260200160002060008473ffffffffffffffffffffffffffffffffffffffff1673ffffffffffffffffffffffffffffffffffffffff16815260200190815260200160002060006101000a81548160ff0219169083151502179055508173ffffffffffffffffffffffffffffffffffffffff168373ffffffffffffffffffffffffffffffffffffffff167f17307eab39ab6107e8899845ad3d59bd9653f200f220920489ca2b5937696c318360405161122491906119e8565b60405180910390a3505050565b61123c848484610c23565b6112488484848461141a565b611287576040517f08c379a000000000000000000000000000000000000000000000000000000000815260040161127e90612464565b60405180910390fd5b50505050565b606060405180602001604052806000815250905090565b6060600060016112b3846115a1565b01905060008167ffffffffffffffff8111156112d2576112d1611d00565b5b6040519080825280601f01601f1916602001820160405280156113045781602001600182028036833780820191505090505b509050600082602001820190505b600115611367578080600190039150507f3031323334353637383961626364656600000000000000000000000000000000600a86061a8153600a858161135b5761135a612484565b5b04945060008503611312575b819350505050919050565b60008073ffffffffffffffffffffffffffffffffffffffff166113948361106a565b73ffffffffffffffffffffffffffffffffffffffff1614159050919050565b50505050565b50505050565b6113c983836116f4565b6113d6600084848461141a565b611415576040517f08c379a000000000000000000000000000000000000000000000000000000000815260040161140c90612464565b60405180910390fd5b505050565b600061143b8473ffffffffffffffffffffffffffffffffffffffff16611911565b15611594578373ffffffffffffffffffffffffffffffffffffffff1663150b7a02611464610acd565b8786866040518563ffffffff1660e01b81526004016114869493929190612508565b6020604051808303816000875af19250505080156114c257506040513d601f19601f820116820180604052508101906114bf9190612569565b60015b611544573d80600081146114f2576040519150601f19603f3d011682016040523d82523d6000602084013e6114f7565b606091505b50600081510361153c576040517f08c379a000000000000000000000000000000000000000000000000000000000815260040161153390612464565b60405180910390fd5b805181602001fd5b63150b7a0260e01b7bffffffffffffffffffffffffffffffffffffffffffffffffffffffff1916817bffffffffffffffffffffffffffffffffffffffffffffffffffffffff191614915050611599565b600190505b949350505050565b600080600090507a184f03e93ff9f4daa797ed6e38ed64bf6a1f01000000000000000083106115ff577a184f03e93ff9f4daa797ed6e38ed64bf6a1f01000000000000000083816115f5576115f4612484565b5b0492506040810190505b6d04ee2d6d415b85acef8100000000831061163c576d04ee2d6d415b85acef8100000000838161163257611631612484565b5b0492506020810190505b662386f26fc10000831061166b57662386f26fc10000838161166157611660612484565b5b0492506010810190505b6305f5e1008310611694576305f5e100838161168a57611689612484565b5b0492506008810190505b61271083106116b95761271083816116af576116ae612484565b5b0492506004810190505b606483106116dc57606483816116d2576116d1612484565b5b0492506002810190505b600a83106116eb576001810190505b80915050919050565b600073ffffffffffffffffffffffffffffffffffffffff168273ffffffffffffffffffffffffffffffffffffffff1603611763576040517f08c379a000000000000000000000000000000000000000000000000000000000815260040161175a906125e2565b60405180910390fd5b61176c81611372565b156117ac576040517f08c379a00000000000000000000000000000000000000000000000000000000081526004016117a39061264e565b60405180910390fd5b6117ba6000838360016113b3565b6117c381611372565b15611803576040517f08c379a00000000000000000000000000000000000000000000000000000000081526004016117fa9061264e565b60405180910390fd5b6001600360008473ffffffffffffffffffffffffffffffffffffffff1673ffffffffffffffffffffffffffffffffffffffff16815260200190815260200160002060008282540192505081905550816002600083815260200190815260200160002060006101000a81548173ffffffffffffffffffffffffffffffffffffffff021916908373ffffffffffffffffffffffffffffffffffffffff160217905550808273ffffffffffffffffffffffffffffffffffffffff16600073ffffffffffffffffffffffffffffffffffffffff167fddf252ad1be2c89b69c2b068fc378daa952ba7f163c4a11628f55a4df523b3ef60405160405180910390a461190d6000838360016113b9565b5050565b6000808273ffffffffffffffffffffffffffffffffffffffff163b119050919050565b6000604051905090565b600080fd5b600080fd5b60007fffffffff0000000000000000000000000000000000000000000000000000000082169050919050565b61197d81611948565b811461198857600080fd5b50565b60008135905061199a81611974565b92915050565b6000602082840312156119b6576119b561193e565b5b60006119c48482850161198b565b91505092915050565b60008115159050919050565b6119e2816119cd565b82525050565b60006020820190506119fd60008301846119d9565b92915050565b600081519050919050565b600082825260208201905092915050565b60005b83811015611a3d578082015181840152602081019050611a22565b60008484015250505050565b6000601f19601f8301169050919050565b6000611a6582611a03565b611a6f8185611a0e565b9350611a7f818560208601611a1f565b611a8881611a49565b840191505092915050565b60006020820190508181036000830152611aad8184611a5a565b905092915050565b6000819050919050565b611ac881611ab5565b8114611ad357600080fd5b50565b600081359050611ae581611abf565b92915050565b600060208284031215611b0157611b0061193e565b5b6000611b0f84828501611ad6565b91505092915050565b600073ffffffffffffffffffffffffffffffffffffffff82169050919050565b6000611b4382611b18565b9050919050565b611b5381611b38565b82525050565b6000602082019050611b6e6000830184611b4a565b92915050565b611b7d81611b38565b8114611b8857600080fd5b50565b600081359050611b9a81611b74565b92915050565b60008060408385031215611bb757611bb661193e565b5b6000611bc585828601611b8b565b9250506020611bd685828601611ad6565b9150509250929050565b600080600060608486031215611bf957611bf861193e565b5b6000611c0786828701611b8b565b9350506020611c1886828701611b8b565b9250506040611c2986828701611ad6565b9150509250925092565b600060208284031215611c4957611c4861193e565b5b6000611c5784828501611b8b565b91505092915050565b611c6981611ab5565b82525050565b6000602082019050611c846000830184611c60565b92915050565b611c93816119cd565b8114611c9e57600080fd5b50565b600081359050611cb081611c8a565b92915050565b60008060408385031215611ccd57611ccc61193e565b5b6000611cdb85828601611b8b565b9250506020611cec85828601611ca1565b9150509250929050565b600080fd5b600080fd5b7f4e487b7100000000000000000000000000000000000000000000000000000000600052604160045260246000fd5b611d3882611a49565b810181811067ffffffffffffffff82111715611d5757611d56611d00565b5b80604052505050565b6000611d6a611934565b9050611d768282611d2f565b919050565b600067ffffffffffffffff821115611d9657611d95611d00565b5b611d9f82611a49565b9050602081019050919050565b82818337600083830152505050565b6000611dce611dc984611d7b565b611d60565b905082815260208101848484011115611dea57611de9611cfb565b5b611df5848285611dac565b509392505050565b600082601f830112611e1257611e11611cf6565b5b8135611e22848260208601611dbb565b91505092915050565b60008060008060808587031215611e4557611e4461193e565b5b6000611e5387828801611b8b565b9450506020611e6487828801611b8b565b9350506040611e7587828801611ad6565b925050606085013567ffffffffffffffff811115611e9657611e95611943565b5b611ea287828801611dfd565b91505092959194509250565b60008060408385031215611ec557611ec461193e565b5b6000611ed385828601611b8b565b9250506020611ee485828601611b8b565b9150509250929050565b7f4e487b7100000000000000000000000000000000000000000000000000000000600052602260045260246000fd5b60006002820490506001821680611f3557607f821691505b602082108103611f4857611f47611eee565b5b50919050565b7f4552433732313a20617070726f76616c20746f2063757272656e74206f776e6560008201527f7200000000000000000000000000000000000000000000000000000000000000602082015250565b6000611faa602183611a0e565b9150611fb582611f4e565b604082019050919050565b60006020820190508181036000830152611fd981611f9d565b9050919050565b7f4552433732313a20617070726f76652063616c6c6572206973206e6f7420746f60008201527f6b656e206f776e6572206f7220617070726f76656420666f7220616c6c000000602082015250565b600061203c603d83611a0e565b915061204782611fe0565b604082019050919050565b6000602082019050818103600083015261206b8161202f565b9050919050565b7f4552433732313a2063616c6c6572206973206e6f7420746f6b656e206f776e6560008201527f72206f7220617070726f76656400000000000000000000000000000000000000602082015250565b60006120ce602d83611a0e565b91506120d982612072565b604082019050919050565b600060208201905081810360008301526120fd816120c1565b9050919050565b7f4552433732313a20696e76616c696420746f6b656e2049440000000000000000600082015250565b600061213a601883611a0e565b915061214582612104565b602082019050919050565b600060208201905081810360008301526121698161212d565b9050919050565b7f4552433732313a2061646472657373207a65726f206973206e6f74206120766160008201527f6c6964206f776e65720000000000000000000000000000000000000000000000602082015250565b60006121cc602983611a0e565b91506121d782612170565b604082019050919050565b600060208201905081810360008301526121fb816121bf565b9050919050565b600081905092915050565b600061221882611a03565b6122228185612202565b9350612232818560208601611a1f565b80840191505092915050565b600061224a828561220d565b9150612256828461220d565b91508190509392505050565b7f4552433732313a207472616e736665722066726f6d20696e636f72726563742060008201527f6f776e6572000000000000000000000000000000000000000000000000000000602082015250565b60006122be602583611a0e565b91506122c982612262565b604082019050919050565b600060208201905081810360008301526122ed816122b1565b9050919050565b7f4552433732313a207472616e7366657220746f20746865207a65726f2061646460008201527f7265737300000000000000000000000000000000000000000000000000000000602082015250565b6000612350602483611a0e565b915061235b826122f4565b604082019050919050565b6000602082019050818103600083015261237f81612343565b9050919050565b7f4552433732313a20617070726f766520746f2063616c6c657200000000000000600082015250565b60006123bc601983611a0e565b91506123c782612386565b602082019050919050565b600060208201905081810360008301526123eb816123af565b9050919050565b7f4552433732313a207472616e7366657220746f206e6f6e20455243373231526560008201527f63656976657220696d706c656d656e7465720000000000000000000000000000602082015250565b600061244e603283611a0e565b9150612459826123f2565b604082019050919050565b6000602082019050818103600083015261247d81612441565b9050919050565b7f4e487b7100000000000000000000000000000000000000000000000000000000600052601260045260246000fd5b600081519050919050565b600082825260208201905092915050565b60006124da826124b3565b6124e481856124be565b93506124f4818560208601611a1f565b6124fd81611a49565b840191505092915050565b600060808201905061251d6000830187611b4a565b61252a6020830186611b4a565b6125376040830185611c60565b818103606083015261254981846124cf565b905095945050505050565b60008151905061256381611974565b92915050565b60006020828403121561257f5761257e61193e565b5b600061258d84828501612554565b91505092915050565b7f4552433732313a206d696e7420746f20746865207a65726f2061646472657373600082015250565b60006125cc602083611a0e565b91506125d782612596565b602082019050919050565b600060208201905081810360008301526125fb816125bf565b9050919050565b7f4552433732313a20746f6b656e20616c7265616479206d696e74656400000000600082015250565b6000612638601c83611a0e565b915061264382612602565b602082019050919050565b600060208201905081810360008301526126678161262b565b905091905056fea264697066735822122033b469e8e1362aed90f10878844a3b5b12cfd65378185f6751aeddb4d5cfafa064736f6c63430008130033",
  "linkReferences": {},
  "deployedLinkReferences": {}
}